:020000040800F2
:1000000000A1002059020008754B0008B339000810
:10001000E54900082D120008C59C000800000000FA
:10002000000000000000000000000000A101000826
:10003000E11D000800000000F5010008CD6A00087D
:1000400073020008730200087302000873020008BC
:1000500073020008730200087302000873020008AC
:10006000730200087302000873020008730200089C
:10007000730200087302000873020008730200088C
:10008000730200087302000873020008730200087C
:100090009D14000873020008730200087302000830
:1000A000730200087302000873020008A16B0008C5
:1000B000730200087302000873020008730200084C
:1000C000730200087302000873020008730200083C
:1000D000730200080D7C000873020008417C0008D0
:1000E000730200087302000873020008730200081C
:1000F000730200087302000873020008730200080C
:1001000073020008730200087302000873020008FB
:100110008577000873020008730200087302000864
:1001200073020008730200087302000873020008DB
:1001300073020008730200087302000873020008CB
:100140007302000873020008730200088D5400084F
:1001500073020008730200087302000873020008AB
:10016000730200087302000873020008730200089B
:10017000730200087302000873020008730200088B
:100180007302000873020008DFF810D000F018FCBA
:1001900000480047D9D90008AFF3008000A1002033
:1001A0002A4B19680868B0E8F04F80F30988BFF35C
:1001B0006F8F4FF0000080F311887047000000003F
:1001C00006480068006880F3088862B661B6BFF32D
:1001D0004F8FBFF36F8F00DF00BF00BF08ED00E05F
:1001E000DFF80C00016841F470010160704700BF46
:1001F00088ED00E0EFF30980BFF36F8F134B1A68AF
:100200001EF0100F08BF20ED108A20E9F04F10609B
:1002100008B44FF0500080F31188BFF34F8FBFF345
:100220006F8F0FF0B1FC4FF0000080F3118808BC15
:1002300019680868B0E8F04F1EF0100F08BFB0EC66
:10024000108A80F30988BFF36F8F70471000002079
:10025000EFF30580704700000648804706480047D6
:10026000FEE7FEE7FEE7FEE7FEE7FEE7FEE7FEE766
:10027000FEE7FEE7E16A00088901000840EA0103A1
:100280009B0703D009E008C9121F08C0042AFAD24C
:1002900003E011F8013B00F8013B521EF9D2704710
:1002A000D2B201E000F8012B491EFBD270470022B8
:1002B000F6E710B513460A4604461946FFF7F0FF65
:1002C000204610BD421C10F8011B0029FBD1801AEA
:1002D000704710B5002200E0521C835C8C5CA34286
:1002E00001D1002BF8D1D8B2E1B2401A10BD2DE9EE
:1002F000FE4F804681EA0300C00F0C46009021F0BB
:10030000004123F00045B8EB0200A94105D2404668
:10031000214690461C460B46024623F000401043FF
:1003200047D0270DC7F30A00C3F30A510290401AC1
:10033000019040286BDAC3F3130040F4801B00984F
:10034000924620B10023D2EB030A63EB0B0B01981A
:100350005946C0F14002504600F0E5F906460D4608
:1003600050465946019A00F0EDF910EB0800614142
:10037000002487EA115284EAE7731A4340D0009AB6
:1003800062B3019A012A4FEA075215DC001B61EBA8
:1003900002014FF0004202EA0752CDE90042001C80
:1003A00041F5801132462B4600F024FA03B0BDE837
:1003B000F08F40462146F9E7001B61EB0201001C6B
:1003C00041F5801300185B412018A2F5001747EB98
:1003D000030140EAD570B6196D4111E06D084FEA8E
:1003E000360645EAC0754FEA0752001B61EB020171
:1003F000001C41F5801149084FEA300000195141B5
:1004000032462B4603B0BDE8F04F00F0E4B9009847
:10041000012240000023D0EB020263EBE07300985E
:1004200021464FEAE074B8EB000061EB0401E9E714
:1004300083F000435BE781F0004158E72DE9FE4F70
:1004400081EA030404F0004421F0004100944FF0DD
:10045000000B23F0004350EA01045ED052EA03048B
:100460005BD0C3F30A54C1F30A552C44A4F2F3340D
:100470000194A0FB0254C1F3130141F48011C3F3B2
:10048000130343F4801301FB024400FB034E840A70
:10049000970A44EA815447EA8357A4FB0768029508
:1004A0008D0A05FB07854FEA932C04FB0C542705A6
:1004B000029D4FEA065847EA1637B5EB08056EEB82
:1004C000070C870E920E47EA811742EA8312A7FBB8
:1004D0000201B6EB0B0164EB00042B0D43EA0C3375
:1004E0005E1844EB1C50DA465146E7FB0201C5F3A7
:1004F00013044FEA0B3343EA14534FEA0432019CCE
:1005000043EA0603A4F10C040294009CCDE900B474
:1005100000F070F903B0BDE8F08F00200146F9E764
:100520002DE9F04D81EA030404F0004B21F0004571
:1005300014464FF0000A23F0004150EA050220D093
:1005400054EA01021DD0C5F30A570246C5F313034E
:10055000C1F31300C1F30A5640F4801543F480132D
:10056000A7EB0608101BD64608F2FD3873EB050012
:1005700002D308F1010801E092185B41B8F1000FC5
:1005800003DA00200146BDE8F08D00204FF4801111
:10059000064684460EE0171B73EB050705D3121BB6
:1005A00063EB050306434CEA010C49084FEA3000AF
:1005B00092185B4150EA0107EDD152EA030012D0D4
:1005C00082EA040083EA0501084305D0101BAB4111
:1005D00006D20122002306E000224FF0004302E091
:1005E0006FF0010253101AEB06004CEB085110EBB0
:1005F0000A0041EB0B01BDE8F04D00F0ECB80EB580
:10060000C10F80EAE0700844CA07002140F233437A
:100610008DE80E000A460B4600F0ECF803B000BD72
:100620000EB540F2334102910021CDE900110A4696
:100630000B4600F0DFF803B000BD00F0004230F0E0
:1006400000400AD0C10D01F56071C0F3160042EA06
:100650000151C2084007114370470020014670470E
:1006600001F0004330B421F0004150EA010206D00D
:100670000A0DA2F56072C1F31301002A02DC30BC3E
:1006800000207047440F44EAC104C100E01830BCA8
:1006900000EBC25000F068B830B50B4601460020B0
:1006A0002022012409E021FA02F59D4205D303FA34
:1006B00002F5491B04FA02F52844151EA2F10102B5
:1006C000F1DC30BD2DE9F05F0546002092469B46E7
:1006D00088460646814640241BE028464146474658
:1006E000224600F07FF953465A46C01A914110D372
:1006F00011461846224600F016F82D1A67EB01083D
:100700004F4622460120002100F00DF817EB0009AA
:100710004E41201EA4F10104DFDC484631462A4642
:100720004346BDE8F09F202A04DB203A00FA02F19C
:10073000002070479140C2F1200320FA03F31943CF
:1007400090407047202A06DBCB17203A41FA02F08E
:1007500043EAE07306E041FA02F3D040C2F120021E
:1007600091400843194670470029A8BF7047401CB4
:10077000490008BF20F00100704710B4B0FA80FCB7
:1007800000FA0CF050EA010404BF10BC704749B1F4
:10079000CCF1200421FA04F411FA0CF118BF012164
:1007A00021430843A3EB0C01CB1D4FEA00614FEA44
:1007B000102042BF002010BC704700EBC350104413
:1007C0000029A4BF10BC7047401C490008BF20F09E
:1007D000010010BC704710B5141E73F1000408DA54
:1007E000401C41F1000192185B411A4301D120F0F5
:1007F000010010BD2DE9F04D92469B4611B1B1FAB2
:1008000081F202E0B0FA80F220329046FFF78BFFCF
:1008100004460F4640EA0A0041EA0B0153465A4695
:10082000084313D0114653EA010019D0C8F1400221
:10083000504600F0D7F805460E4650465946424607
:10084000FFF771FF084305D0012004E02046394638
:10085000BDE8F08D0020054346EAE0762C4337439F
:100860000A986305E40AA0EB08000022FD0A44EAA6
:1008700047540A3002D500200146E9E70105101966
:100880006941DDE9084500196941BDE8F04DA2E77D
:1008900070B521F0004303430CD0C1F30A55002486
:1008A000D5EB040564EB0403D617AD1AB34102DBA4
:1008B0000020014670BD201841EB025170BD2DE9AA
:1008C000F04D00231A461B1A8A4103DB0020014623
:1008D000BDE8F08DC1F30A52C1F3130141F4801554
:1008E0004FF0000BD10702D100186D41521E0027B6
:1008F000044640F2FF11384601EB620A3E4680464C
:10090000024600204FF4801100F06CF8C2197141CA
:10091000BB1846EB0100B4EB030C75EB000C04D3E1
:10092000E41A65EB000517460E46241908F101008C
:100930006D4180463428E3DDF91946EB0600091BBA
:10094000A84103D24FF0FF32134601E000221346C4
:100950001BEB070046EB0A51BDE8F04DFFF73BBF2C
:10096000C1F30A52C1F3130140F2FF3341F4801185
:100970009A4202DA00200146704740F233439A421D
:10098000A2F2334202DC524200F02CB8FFF7CBBE99
:1009900030B5041E71F1000404DB4FF00044404206
:1009A00064EB0101141E73F1000405DB1C464FF0DB
:1009B0000043524263EB0403994208BF904230BDAA
:1009C000064C074D06E0E06840F0010394E807009C
:1009D00098471034AC42F6D3FFF7DAFBC82601087B
:1009E000E8260108202A04DB203A21FA02F000213F
:1009F000704721FA02F3D040C2F12002914008432F
:100A00001946704770B5C1F30A5201F00045002441
:100A1000C1F3130140F2FF3341F480119A4201DA2D
:100A2000002070BD40F233439A42A2F2334203DC0D
:100A30005242FFF7D7FF00E090402C43F1D04042F4
:100A400070BD70B58C1810F8015B15F0070301D16B
:100A500010F8013B2A1106D110F8012B03E010F821
:100A6000016B01F8016B5B1EF9D12B0705D4002344
:100A7000521E0DD401F8013BFAE710F8013BCB1AE6
:100A8000921C03E013F8015B01F8015B521EF9D5DB
:100A9000A142D8D3002070BD70B58CB001210220D6
:100AA00005F066F8032501268DF81C5000240696F3
:100AB0008DF81F4006A91D4801F0ECFE012104201D
:100AC00005F056F8042006908DF81C508DF81F4054
:100AD00006A9174801F0DEFE01210D02284605F0A7
:100AE0006BF80121284605F073F80021284605F02F
:100AF0006FF8089428020B94CDE9090408A800F0C7
:100B00008DF88DF8044000948DF80540029404940B
:100B1000084C8DF814606946204600F0B3F80121B6
:100B2000204600F071F80CB070BD000000040240D7
:100B30000008024000200140F0B58DB001210420E2
:100B400005F016F803252E4F02268DF81C500024C0
:100B500006968DF81F4006A9384601F09BFE01213C
:100B6000042005F005F8082006908DF81C508DF83B
:100B70001F4006A9384601F08DFE01214D0228468E
:100B800005F01AF80121284605F022F80021284630
:100B900005F01EF80894E8010B94CDE9090408A8B3
:100BA00000F03CF801200094029404948DF80400B5
:100BB000144C8DF805008DF814606946204600F04D
:100BC00061F8072301220B21204600F081F807235A
:100BD00002220D21204600F07BF80121204600F082
:100BE0003DF80121204600F00FF800F0B1F8012196
:100BF000204600F029F8204600F0A4F80DB0F0BD22
:100C000000080240002101400029816802D041F023
:100C1000010101E021F0010181607047084B10B52E
:100C2000D3F8042307490A40D0E900142143D0E94E
:100C30000240044321431143C3F8041310BD0000D4
:100C400000200140E030FCFF0029816802D041F41F
:100C5000807101E021F48071816070470029816812
:100C600002D041F4007101E021F40071816070470D
:100C7000C06C80B270470246002012680A4200D061
:100C80000120704730B542680F4B0C791A400B6851
:100C900042EA04221343436082680C4B4D791A40A8
:100CA000D1E9034323438C6844EA450423431343B7
:100CB0008360C26A097D22F47002491EC9B242EA09
:100CC0000151C16230BD0000FFFEFFFCFDF7FFC017
:100CD00070B5072609290AD9C568A1F10A0404EBF1
:100CE0004404A640B543A3401D43C56007E0056921
:100CF00001EB4104A640B543A3401D4305611F23FA
:100D0000072A09D2446B521E02EB820293409C4395
:100D100091400C43446370BD0D2A09D2046BD21F6D
:100D200002EB820293409C4391400C43046370BDEC
:100D3000C46A0D3A02EB820293409C4391400C43FB
:100D4000C46270BD816841F08041816070470000DD
:100D500010B5012190B0880504F00AFF174C204619
:100D600000F03EFF204600F0CDFF0028FAD14FF002
:100D70000070009012480190124802900020A021BB
:100D8000CDE903014FF48061CDE9050149000791E8
:100D900089000891491109914902CDE90A100321FE
:100DA000CDE90C100E906946204600F0B3FF0121FA
:100DB000204600F00BFF10B010BD00005864024048
:100DC0004C210140E07E0020002141708170C17003
:100DD000017101707047000070B53C4D9FED3C0AF9
:100DE000DFED3C0A95ED171A86B051EE000AB1EE20
:100DF000041A60EE810AB3EE0A1AC0EE811AFDEE03
:100E0000E10A10EE903A642B00DD6423D5ED080A68
:100E100060EE800AFDEEE00A10EE900A002800DA8B
:100E20004042D5ED0B0A20EE800ABDEEC00A10EE5E
:100E3000101A002900DA4942274C6278A2B1002238
:100E40006270264CE678012E10D0254DB5F91C4075
:100E50009AB3B5F91A20B5F9181006B02346BDE8C3
:100E6000704020A009F072BD0122E9E72249214823
:100E70009FED221A4AC9826BCDE90236CDE90412F0
:100E8000D0ED080A90ED090A60EE810ABDEEC00AB5
:100E9000FDEEE00ACDED000A8DED010AD5E918233B
:100EA00090ED0C0A16A0BDEEC00A10EE101A09F063
:100EB0004DFD0020E07006B070BDFFE7CAB2C1B2C0
:100EC00017A0009409F042FDF5E700000486002019
:100ED0000000C8420000FA448C010020D500002028
:100EE000848700207B4225643A25643A25647D246A
:100EF0000000000094860020D47E002000007A4488
:100F00007B4325643A25643A25643A25643A25648E
:100F10003A25643A25643A25643A25647D24000024
:100F20007B4125643A25643A25643A25647D240092
:100F3000F0B5224B00279979DE79491CCDB2711C9E
:100F4000CCB259792B2812D081B31A7903F1240C31
:100F5000521CD2B20CEB810C1A715CF804CC1CF858
:100F600002C084450CD19D71222D06D01CE0491C85
:100F700059711F719D71DC7116E09F71DF7111E075
:100F80000E4D1C3505EB810555F8045CAA5C8242C8
:100F900003D001290BD10D2E09D3DC712C2C03D1E8
:100FA000DF719F715F711F710120F0BD03E09F71C0
:100FB000DF715F711F710020F7E70000A0010020C2
:100FC0004FF4FA6181604910C16040F2DC51416028
:100FD00070470000F5EEC00A10B5F1EE10FA44D0EB
:100FE000B5EEC00AF1EE10FA3FD080EE201A21488B
:100FF0009FED1F2AF6EE000A90ED000AB5EEC01A2A
:10100000F1EE10FA0ADD60EE201AF4EEC11AF1EEEC
:1010100010FA03DBB0EE421A00EE201AB5EEC01A49
:10102000F1EE10FA0CD2FEEE001A60EE212AF4EE78
:10103000C12AF1EE10FA03D8B0EE421A10EE211ACE
:10104000D0ED011A00EE601A81EE810A10EE100A4E
:10105000FFF7F3FA41EC100B09F0B2FC51EC100B66
:10106000FFF7FEFA00EE100A10BD9FED030A10BD57
:101070000AD7233C04860020000000002DED028BDF
:1010800082B00CF0EBF9654DDFF88881624C40F6D8
:10109000B83940F2CE4AA5F13C0600279FED608AA0
:1010A00001900A2101A80EF0E5FA6068484501DACE
:1010B000401C606001F0EEFD00F0F2FC642008F0DE
:1010C00003FE05F095F86068A0F2E931C7290AD25D
:1010D000F0EE480AB0EE601A9FED520A01F07EF978
:1010E0000DF05EFC10E0A0F2B1401D280CD2B0EE75
:1010F000480A01206870B0EE401AF0EE400A01F094
:101100006DF94FF4FA7060816168514540DD607A95
:1011100058B9B078401CC0B2B070642805D986EDCB
:10112000018A86ED028A86ED038A98F80610404609
:10113000012905D0307841071BD501F03DFD27E09E
:10114000417931B190ED0C1AD0ED0B0A98ED0A0AF5
:101150001CE0017931B190ED091AD0ED080A98ED43
:10116000070A13E0B0EE480AB0EE401AF0EE400A6B
:101170000CE0010702D504F033FE09E0800702D538
:1011800004F0ECFB04E0301D90EC030A01F026F9BA
:10119000287D01280CD1606840F21451884207DD97
:1011A000642000F01FFE01287FF47BAF2F7578E7E5
:1011B00006F0D4F9707005F0D1F9707818B31748BB
:1011C000183004F08BF91548343004F087F91348CF
:1011D000503004F083F911486C3004F07FF900239B
:1011E0001A4619461846009705F09AFA0E4801F07B
:1011F000D7FA01280AD0DAD94FF00B014FF00A00D4
:1012000000F016F84DE704F055FFEFE764210120E8
:10121000F6E7000020800020C47D0020D08600205A
:1012200000000000CDCC4C3ED7000020FEE70000BF
:1012300030B50C4C23780A2B01D3002030BD0A4D69
:10124000627805F8120005EB4200521C41700A203A
:10125000B2FBF0F100FB112060705B1C23700120D9
:1012600030BD0000A8000020588000201CB50121DE
:10127000082004F07DFC4FF40060009001208DF800
:10128000040000248DF8064003218DF805108DF828
:1012900007006946034801F0FDFA0348C0F8AC4274
:1012A0001CBD0000000C02400080414200EE102AEC
:1012B000B7EE001AF0B5F8EE400A01EB8103002604
:1012C0005B0081EE200ADFED220A234F0143354601
:1012D00020EE200ABCEEC00A10EE104A1FFA84FC71
:1012E0001C4C01D0634505D23D81FD700120C4F83E
:1012F000AC52F0BD00EE102A3989B8EE400AC1EEBA
:10130000001A00EE101AB8EE400A01EEA00ABCEE78
:10131000C00A10EE101A89B23981994203D2012015
:10132000C4F8AC0211E0B1EB430F02D2C4F8AC52E6
:101330000BE03D81F978491CC9B2F970814204D1B2
:10134000C4F8AC52FD700120F0BD3046F0BD000085
:1013500000007A4400804142A800002070B51B4C78
:10136000064604F10A05A079B0B92078A0B1217928
:10137000012911D1164AA17812F8113002EB41026D
:101380002B7052786A700A22491CB1FBF2F302FBFF
:101390001311A170401E2070697828783246FFF73B
:1013A00085FF0021207101280BD0A079002807D0EB
:1013B0006079401CC0B26071B04201D36171A1710B
:1013C00070BD297069700120A071F1E7A8000020AC
:1013D000588000202DE9F04788B09946DDF840A0FC
:1013E000F0B3E9B3E2B3B9F1000F53D0A0F10108B3
:1013F0004E1E571E01F016FA0121480604F0D0FBDC
:1014000000248DF806408DF807408DF804708DF8A3
:10141000084001258DF805608DF809508DF802A06F
:101420001D4E8DF80A408DF803808DF80B40ADF805
:1014300000906946304600F09FF98DF816408DF80F
:1014400017408DF81850ADF80C40ADF81040ADF8CD
:101450000E40ADF81240ADF814408DF8195000E080
:1014600018E003A800F01AF901220221304600F02A
:101470007BF914208DF81C0003208DF81D008DF8D9
:101480001E408DF81F5007A803F076FB002008B01F
:10149000BDE8F0870120FAE70064004000B587B09E
:1014A0006A4600212F4800F0DBF9DDF80B000590BB
:1014B000DDF80F0006909DF80800C0B1042814D193
:1014C0000198012811D02849C8420ED100210846B0
:1014D00005AA135C401C1944C0B2C9B20828F8D34D
:1014E000082902D121490120087207B000BD0098E7
:1014F0000022A0F58070813805D00128F5D11C4864
:1015000080F83420F1E71B490878C30601D4102085
:1015100008708A70BDF8140040BA00B200EE100ADC
:10152000F8EEC00A9FED140A80EE801A81ED011AD0
:10153000BDF8160040BA00B200EE900AF8EEE00ADC
:1015400080EE801A81ED021ABDF8180040BA00B290
:1015500000EE900AF8EEE00A80EE801A81ED031AA0
:10156000C3E700000064004088A9CBEDC47D0020E3
:10157000208000209486002000007A447CB5194C1D
:1015800000206D462118097E2954401CC0B208284D
:10159000F8D3294640F2011000F054F80020211839
:1015A00091F820102954401CC0B20828F7D369468E
:1015B0004FF4817000F046F80020211891F82810AF
:1015C0002954401CC0B20828F7D3694640F20310E2
:1015D00000F038F80448007A012801D100F088F9B9
:1015E0007CBD000044890020C47D002070B586B019
:1015F000134E019004208DF8080000208DF809009A
:1016000008208DF80A000868CDF80B004868CDF86E
:101610000F006946304600F0ADF94FF6FF7501E066
:10162000641CA4B23946304600F004FA08B9AC4252
:10163000F6D3AC4202D3012006B070BD0020FBE718
:101640000064004070B586B0134E009000208DF805
:1016500008008DF8090008208DF80A000868CDF808
:101660000B004868CDF80F006946304600F082F95B
:101670004FF6FF7501E0641CA4B23946304600F015
:10168000D9F908B9AC42F6D3AC4202D3012006B076
:1016900070BD0020FBE7000000640040F0B5827AD6
:1016A0002F4D012191402A6842F001022A602C4E00
:1016B0001C3632688A433260294A047B294B0C323B
:1016C000A4B914688C4314604488C78844EA07446A
:1016D000877A03EBC707C7F840460488878844EA3F
:1016E0000744877A03EBC707C7F84446047B012CFD
:1016F00012D114680C431460847A026803EBC404AA
:101700004FEA3242C4F84026847A426803EBC403AD
:101710004FEA3242C3F84426114AC37A121D002B05
:10172000136806D00B4313600D4A0389143213B1BA
:1017300004E08B43F7E713688B4313600389012BA5
:1017400002D113680B431360407B012802D130683B
:1017500008433060286820F001002860F0BD0000D8
:101760000066004000600040002A426901D00A4340
:1017700000E08A434261704710B50368002223F0FD
:1017800002030360036843F0010303604FF6FF7335
:1017900000E0521C4468E40701D19A42F9D1426842
:1017A000D2073ED08A79012A02683CD022F080021A
:1017B0000260CA79012A026838D022F04002026031
:1017C0000A7A012A026834D022F0200202604A7AA2
:1017D000012A026830D022F0100202608A7A012ABF
:1017E00002682CD022F008020260CA7A012A02683C
:1017F00028D022F0040202608A78CC78920742EA6C
:1018000004620C7942EA04424C79098842EA0452A3
:10181000491E0A43C261016821F0010101600021F3
:1018200014E0002010BD42F08002C1E742F0400207
:10183000C5E742F02002C9E742F01002CDE742F0CE
:101840000802D1E742F00402D5E7491C4268D207FA
:1018500001D09942F9D14068C007E2D1012010BD02
:1018600010B500EB0113D3F8B04114F00404147266
:10187000D3F8B04133D0E4085460D3F8B04104F059
:1018800002045472D3F8B44104F00F049472D3F8F4
:10189000B441240AD474D3F8B841D472D3F8B8410F
:1018A000240A1473D3F8B841240C5473D3F8B84104
:1018B000240E9473D3F8BC41D473D3F8BC41240AEA
:1018C0001474D3F8BC41240C5474D3F8BC311B0EEF
:1018D000937439B1016941F02001016110BD640DBB
:1018E0001460CAE7C16841F02001C16010BD00006A
:1018F0001CB500208DF800001C48DFED1D0A90ED9E
:10190000040A20EE200ABDEEC00A10EE101A0912D9
:101910008DF8011010EE101A8DF8021090ED050AE6
:1019200020EE200ABDEEC00A10EE101A09128DF842
:10193000031010EE101A8DF8041090ED060A20EE38
:10194000200ABDEEC00A10EE101A09128DF805101B
:1019500010EE101A8DF80610007A8DF8070069460F
:1019600040F20510FFF76EFE1CBD00002080002035
:1019700000007A4430B50246002093685B0108D429
:101980009068000101D5012003E09068C00044D5B3
:10199000022002EB0012D2F8803103F00103C2F8FA
:1019A00080310B7AC3B3D2F880414D681C434B7A27
:1019B00043EAC5031C43C2F880418B7A03F00F034E
:1019C0008B72D2F8843123F00F03C2F88431D2F83D
:1019D00084318C7A2343C2F88431CB7A8C7B0D7BA3
:1019E00043EA04634C7B240444EA05242343C2F8FD
:1019F0008831CB7B8C7C43EA04634C7C097C2404D7
:101A000044EA01210B43C2F88C31D2F8801141F035
:101A10000101C2F8801130BD01E00420FBE7D2F8DB
:101A200080314C7A23430C8843EA4453C2F8803116
:101A3000C3E70000002221B1012905D0022906D107
:101A400012E08268114801E08268114802401149A1
:101A5000501A8A4214D00ADCA2B16FF080601018CC
:101A60000FD002280CD10FE082680B48EEE7B0F5EA
:101A7000007F09D00949401803D0B0F5003F03D0DA
:101A800000207047022070470120704703000004C7
:101A90000003000800010008000003100001FFF728
:101AA00070B51D4C1D4E0025A079012804D1307A57
:101AB00010B9A57100F010FE307A012819D194F800
:101AC0003400401CC0B284F83400642804D90BF000
:101AD000CDFA652084F8340011481249C06D88425F
:101AE00007DA207928B11048817911B18571012078
:101AF000A0710E48018A491C89B201820A2909D9BC
:101B00000B21018240F2DC514FF47A720160C0E98E
:101B10000112C16070BD000020800020C47D002043
:101B2000048600200000A04128010020E484002059
:101B3000034610B50020024603E09C5C6040521C46
:101B400092B28A42F9D310BD03498988C140C807BF
:101B500000D0012070470000F8000020174A032839
:101B600009D01346DFED160A93ED0C0A082809D0B8
:101B70000A280ED015E0012913D112490120096865
:101B800008740EE0022901D001290AD130EE600A62
:101B900005E0022901D0012903D130EE200A82EDAF
:101BA0000C0A92ED0C0AB5EEC00AF1EE10FA03D25F
:101BB0009FED050A82ED0C0A704700009486002014
:101BC00000004842E00000200000000000290168F9
:101BD00002D041F0010101E021F0010101607047F4
:101BE0002DE9F043016821F001010160002101604D
:101BF00041608160C1600161212141613C493C4AF1
:101C00003D251039904202D18D60BDE8F083384AFD
:101C10004FF474661832904201D18E60F5E7344A71
:101C20004FF474173032904201D18F60EDE7304AA3
:101C30004FF0746C4832904202D1C1F808C0E4E71A
:101C40002B4B2C4A6033984201D1CA60DDE7284C07
:101C5000294B7834A04201D1CB60D6E7DFF89080E1
:101C6000264C08F19008404501D1CC60CDE7DFF863
:101C700080804FF03D5908F1A808404502D1C1F8D5
:101C80000C90C2E71E49DFF878800839404501D141
:101C90000D60BAE71A4D1835A84201D10E60B4E7BD
:101CA000174D3035A84201D10F60AEE7144D4835CD
:101CB000A84202D1C1F800C0A7E7114D1049603514
:101CC000091FA84201D10A609FE70D4A783290426D
:101CD00001D10B6099E70A4A9032904201D10C6021
:101CE00093E7074AA83290428FD1C1F800908CE761
:101CF000106002403D000020400F002000003D2009
:101D000010640240014600200968C90700D0012084
:101D10007047000030B50368124ACC6813400A6867
:101D20002243D1E905452C432243CC6922430C6A66
:101D300022434C6A22438C6A22434C6B22438C6BB5
:101D400022431A430260426922F00703D1E90B24BF
:101D500022431A4342610A6942604A688260896884
:101D6000C16030BD3F801CF070B5044600200246C3
:101D700004EB8001401CC1F888291028F8D300200A
:101D80004FF400652118401C81F81C21A842F9D3AA
:101D9000227062700120A070C4F8C829207640210A
:101DA000A171627684F81C2984F81D0984F81F2922
:101DB000010284F81E2904F11C00FEF778FA294676
:101DC00004F58E70FEF773FA122104F62610FEF762
:101DD0006EFA3E2104F63810FEF769FA002070BD55
:101DE000704700002DE9F84FDFF890820746002683
:101DF000D8F82400DFF888B2401CC8F82400012875
:101E00000CD1DBF8000008B10DF04EFE9D499E4854
:101E10000BF00CF914210120FFF70AFAD8F824007E
:101E20009FED9A0ADFF86892DFF868A29A4C0025C5
:101E3000F6EE000AB0EB470F0CD2C4ED070A84EDB2
:101E40000A0A84ED0D0A84ED100A04F033F909F151
:101E500004006FE05FD18C4D90A128460BF0E6F8AE
:101E600094ED080A984910EE100A014497488142FF
:101E700001D297A14AE0012088F8070010EE100A6D
:101E80009749884205D997A128460BF0CFF89D497C
:101E90003CE0D4ED0B0A5046F0EEE00A10EE901A4A
:101EA000814205DD98A128460BF0C0F8A6492DE037
:101EB000D4ED0E0AF0EEE00A10EE901A814205DD34
:101EC000A2A128460BF0B2F8B0491FE0D4ED110AE8
:101ED000F0EEE00A10EE901A514505DDACA128465F
:101EE0000BF0A4F8BA4911E0B0EEC00A10EE100AE7
:101EF000B84988420DDAB848C16841F28830814259
:101F000007DDB6A128460BF091F8C24928460BF030
:101F10008DF8C1A176E0B0EB870F12D284ED070AED
:101F2000C4ED0A0A84ED0D0A84ED100A04F0C2F82B
:101F3000574808300560C9F800505548001F056033
:101F400098E073D1504DC0A128460BF06FF894ED86
:101F50000B0A5D4910EE100A01445C48814201D22F
:101F6000C4A14BE0012088F8070010EE100A5C497C
:101F7000884205D9C3A128460BF058F8C9493DE06D
:101F8000D4ED080A5046F0EEE00A10EE901A8142B5
:101F900005DDC5A128460BF049F86B492EE0D4EDCC
:101FA0000E0AF0EEE00A10EE901A814205DDCEA195
:101FB00028460BF03BF8DC4920E0D4ED110AF0EEA6
:101FC000E00A10EE901A514505DDD8A128460BF025
:101FD0002DF8E64912E0B0EEC00A10EE100A7D4975
:101FE00088420EDA7C481C30C16841F28830814258
:101FF00007DDDFA128460BF019F8EB4928460BF066
:1020000015F8EAA128460BF011F8734803F066FAB8
:1020100071481C3003F062FA6F48383003F05EFA02
:102020006D48543003F05AFA24E0FFE784ED070AC4
:1020300084ED0A0A002384ED0D0A84ED100A0126BE
:102040001A4619461846009504F06AFB7CA10E4812
:102050000AF0ECFF14210120FFF7EAF898F80700D6
:1020600020B9DBF8000008B10DF060FCC8F824507E
:1020700088F807503046BDE8F88F0000280100209E
:102080009C010020202201080010014000000000F7
:1020900038040140CDCC4C3E048600203D3D3D3D02
:1020A0003D3D3D3D3D3D3D3D3D3D3D3D3D20B5E75B
:1020B000BBFA41203D3D3D3D3D3D3D3D3D3D3D3D2E
:1020C0003D3D3D3D0D0A0000323333C1CCCC4C00C8
:1020D000B5E7BBFA41D5FDB3A32E0D0A0000000001
:1020E000CDCC4CBEBCECB2E2B5BD41B5E7BBFAB15C
:1020F000E0C2EBC6F7BCABD0D4B4EDCEF32E0D0AE4
:1021000000000000A0250108C7FDB6AFB5E7BBFA87
:1021100041CAB12CBCECB2E2B5BDB1E0C2EBC6F72E
:10212000BDD3BFDA42B5C4D0C5BAC52E0D0AD7D4C7
:10213000BCECCAB1B5E7BBFA41CAC7B7F1D7AAB67A
:10214000AF3F0D0A0000000070220108C7FDB6AFC6
:10215000B5E7BBFA41CAB12CBCECB2E2B5BDB1E007
:10216000C2EBC6F7BDD3BFDA43B5C4D0C5BAC52EDE
:102170000D0AD7D4BCECCAB1B5E7BBFA41CAC7B7A0
:10218000F1D7AAB6AF3F0D0A00000000C022010837
:10219000C7FDB6AFB5E7BBFA41CAB12CBCECB2E2A1
:1021A000B5BDB1E0C2EBC6F7BDD3BFDA44B5C4D00C
:1021B000C5BAC52E0D0AD7D4BCECCAB1B5E7BBFA77
:1021C00041CAC7B7F1D7AAB6AF3F0D0A0000000059
:1021D000B0230108CDCC4C3DE8860020C7FDB6AF4A
:1021E000B5E7BBFA41CAB12CCEB4BCECB2E2B5BD86
:1021F000B1E0C2EBC6F7D0C5BAC52E0D0AD7D4BC24
:10220000ECCAB1B5E7BBFA41CAC7B7F1D7AAB6AFB6
:102210003F0D0A00A02401083D3D3D3D3D3D3D3DB3
:102220003D3D3D3D3D3D3D3D3D20B5E7BBFA4120B7
:102230003D3D3D3D3D3D3D3D3D3D3D3D3D3D3D3DCE
:102240000D0A0D0A000000003D3D3D3D3D3D3D3D78
:102250003D3D3D3D3D3D3D3D3D20B5E7BBFA422086
:102260003D3D3D3D3D3D3D3D3D3D3D3D3D3D3D3D9E
:102270000D0A0000B5E7BBFA42D5FDB3A32E0D0A47
:1022800000000000BCECB2E2B5BD42B5E7BBFAB15C
:10229000E0C2EBC6F7BCABD0D4B4EDCEF32E0D0A42
:1022A0000000000004260108C7FDB6AFB5E7BBFA81
:1022B00042CAB12CBCECB2E2B5BDB1E0C2EBC6F78C
:1022C000BDD3BFDA41B5C4D0C5BAC52E0D0AD7D427
:1022D000BCECCAB1B5E7BBFA42CAC7B7F1D7AAB6D8
:1022E000AF3F0D0A00000000C7FDB6AFB5E7BBFA6F
:1022F00042CAB12CBCECB2E2B5BDB1E0C2EBC6F74C
:10230000BDD3BFDA43B5C4D0C5BAC52E0D0AD7D4E4
:10231000BCECCAB1B5E7BBFA42CAC7B7F1D7AAB697
:10232000AF3F0D0A0000000038230108C7FDB6AF1B
:10233000B5E7BBFA42CAB12CBCECB2E2B5BDB1E024
:10234000C2EBC6F7BDD3BFDA44B5C4D0C5BAC52EFB
:102350000D0AD7D4BCECCAB1B5E7BBFA42CAC7B7BD
:10236000F1D7AAB6AF3F0D0A0000000028240108EB
:10237000C7FDB6AFB5E7BBFA42CAB12CCEB4BCECD0
:10238000B2E2B5BDB1E0C2EBC6F7D0C5BAC52E0DFD
:102390000AD7D4BCECCAB1B5E7BBFA42CAC7B7F199
:1023A000D7AAB6AF3F0D0A00202501083D3D3D3DAF
:1023B0003D3D3D3D3D3D3D3D3D3D3D3D3D20B5E748
:1023C000BBFA42203D3D3D3D3D3D3D3D3D3D3D3D1A
:1023D0003D3D3D3D0D0A0D0A0000000010B53A4C90
:1023E000B0EE412A2DED028BF0EE602A94ED0D1A2D
:1023F000F1EE410A0CF054FF94ED0D1AF0EE401A84
:10240000B0EE620AF1EE410A0CF04AFF94ED0D1AAB
:10241000F0EE408AB0EE420AF1EE410A0CF040FFC5
:102420002A48B0EE408A8079B8B3C4ED041AC4EDEE
:10243000058A84ED068AF0EE480A94ED040A01F05C
:1024400021FE0121A06B0DF0DDFBB0EE408A0021E2
:10245000A06B0DF0D7FB94ED0D1A1D48F0EE401A5D
:10246000F1EE410A90ED070A0CF01AFF80ED070A21
:1024700094ED0D1A90ED0A0AF1EE410A0CF010FFEE
:10248000D0ED070A20EE210A60EE880AC0ED070AA7
:1024900080ED0A0ABDEC028B10BDFFE794ED081A2F
:1024A00094ED040AF0EE610A07F030FE84ED040AB0
:1024B00094ED081A94ED050AF0EE680A07F026FE7E
:1024C00084ED050AB5E700009486002020800020F6
:1024D000048600201CB50121102003F049FB1020C8
:1024E000009000208DF8040003208DF805000120E5
:1024F0008DF807006946024800F0CCF91CBD0000C9
:102500000010024008B50121084603F049FB0121F3
:10251000084603F045FB0121022003F041FB4FF088
:102520008040C11300900823024A034800F020F8BD
:1025300008BD0000000402400000024008B501216F
:10254000022003F02DFB0121084603F029FB0121A5
:10255000084603F025FB0448009004488023024607
:10256000402100F005F808BD0004004000000240D2
:102570002DE9FF4F89B04FF003098DF805904FF01A
:10258000020A8DF804A04FF001080F4600918DF863
:1025900006801E469346169C8DF80780694609986A
:1025A00000F078F98DF805908DF804A08DF806807C
:1025B00000968DF807806946584600F06BF93A4856
:1025C00084420DD0B4F1804F0AD03848844205D0FF
:1025D0003748844202D03748844203D1022519E0AB
:1025E000012517E03448844208D03448844205D09D
:1025F0003348844202D03348844201D1032509E0A4
:102600003148844205D03148844202D03048844267
:1026100000D10925002127FA01F0C00703D1491C88
:10262000C9B21029F7D32A46099800F0EDF9002124
:1026300026FA01F0C00703D1491CC9B21029F7D30B
:102640002A46584600F0E0F902A804F04BFE0025A7
:102650004FF6FF70ADF808500390ADF81050ADF88C
:102660000A5002A9204604F0FFFD00231A46032168
:10267000204604F012FC05A804F092FCADF81C50B2
:1026800005A9204604F036FC0121204604F0EAFBAF
:102690000021204604F0BEFD0121204604F0E8FBA5
:1026A0000DB0BDE8F08F00000000014000040040C4
:1026B00000080040000C00400004014000400140C0
:1026C000004401400048014000180040001C004048
:1026D0000020004072B6FEE71CB505A0D0E900104E
:1026E000CDE9001069460448FEF780FF1CBD0000DC
:1026F00001010101010101017856341210B50020D9
:1027000003F068FB224C411C00D0E060012003F084
:1027100061FB411C00D06060022003F05BFB411CA8
:1027200000D0A060032003F055FB1A4C411C00D0E0
:10273000A063042003F04EFB411C00D0206394ED05
:102740000C0AB5EEC00AF1EE10FA04D310EE100A2E
:102750001149884203DD9FED110A84ED0C0A052022
:1027600003F038FB411C4FF0FF3403D021462246D2
:1027700004F030F8062003F02DFB0146401C05D084
:1027800020462246BDE8104004F024B810BD0000E9
:10279000D07E00209486002000401C460000FA43B2
:1027A00010B50178002488B0012920D100210170E2
:1027B0000CF0E4FD1C216846FDF779FD0D48C16869
:1027C000009141680191806802900B48816B0391F0
:1027D000006B04900948016E0591406E0690072138
:1027E000684607F0F9FE401CC4B20CF003FE08B0C6
:1027F000204610BDD07E0020948600200486002054
:102800001CB50022009102218DF804108DF80620DD
:1028100003228DF805208DF80710694600F03AF87C
:102820001CBD00002DE9FC410121082003F0A0F9A6
:102830000121082003F09CF902248DF804400026B1
:102840008DF806600327DFF848808DF805700125B4
:1028500000948DF807506946404600F01BF88DF84B
:1028600004408DF806608DF8057000958DF80750CE
:102870006946404600F00EF809220121404600F06A
:10288000C3F809220021404600F0BEF8BDE8FC81F3
:10289000000C0240F0B5002201274FF0030C0B683A
:1028A00007FA02F52B40AB422CD1066853000CFA14
:1028B00003F4A64306600E79D0F800E09E4046EA95
:1028C0000E0606600E79012E01D0022E12D1866806
:1028D000A64386604E79D0F808E09E4046EA0E0690
:1028E00086604668AE43466045688E799640B6B2CB
:1028F00035434560C568A543C560CC799C40C36835
:102900001C43C460521C102AC9D3F0BD1CB5002260
:10291000009101218DF804108DF806208DF8052016
:102920008DF807106946FFF7B5FF1CBDFEB5002501
:102930000C4606468DF808500AE09DF8080024FA77
:1029400000F0C00708D19DF80800401C8DF8080071
:102950009DF808001028F0D3204900208A420DD0AD
:10296000B2F1804F0AD01E498A4205D01D498A42E1
:1029700002D01D498A4203D1022019E0012017E04C
:102980001A498A4208D01A498A4205D019498A420E
:1029900002D019498A4201D1032009E017498A422D
:1029A00005D017498A4202D016498A4200D109202F
:1029B0009DF808100246304600F026F802208DF8F7
:1029C00004008DF8065001218DF807108DF80500E0
:1029D000009469463046FFF75DFFFEBD00000140F0
:1029E0000004004000080040000C004000040140CA
:1029F00000400140004401400048014000180040F0
:102A0000001C0040002000404B07DB0E9A40C90824
:102A100010B500EB8100016A0F249C40A1430162C4
:102A2000016A1143016210BD0183704730B40B4647
:102A3000002123FA01F4E40703D1491CC9B210298B
:102A4000F7D3174CA2420DD0B2F1804F0AD0154CEB
:102A5000A24205D0144CA24202D0144CA24203D18F
:102A6000022319E0012317E0114CA24208D0114CB7
:102A7000A24205D0104CA24202D0104CA24201D179
:102A8000032309E00E4CA24205D00E4CA24202D014
:102A90000D4CA24200D1092330BC1A46FFF7B4BF47
:102AA000000001400004004000080040000C00400D
:102AB0000004014000400140004401400048014042
:102AC00000180040001C00400020004070B5D040BD
:102AD00000F001000C460870097B0026012505293D
:102AE0003AD2DFE801F00337091D330088B30DF057
:102AF000A1FC606002200AE00DF09CFC6168401AB5
:102B0000A060217829B1B0F57A7F25D904202073FF
:102B100022E032281FD30DF08DFC60600320F6E721
:102B20000DF088FC61684FF4C872401AA0602178EB
:102B3000012904D090420FD32573012070BD90422B
:102B4000FAD2322808D92573022070BD25730320DC
:102B500070BD01E000B926730020F9E731B5072305
:102B60009DF800100122094C2046FEF7B1F82046DE
:102B7000FEF7E8F802212046FEF77DF80028F9D09C
:102B80002046BDE83840FEF773B800000020014041
:102B90002DE9F04100250E4607462C4605E0384653
:102BA000FFF7DCFF641C0544E4B2B442F7D3B5FB85
:102BB000F6F080B2BDE8F08110B5B3EE0E0A0AF06F
:102BC00027FA2F48DFED2F0ABFEE001A41782E4872
:102BD000092950D2DFE801F04F05080A0F1A4049D1
:102BE0004C0090ED0C0A15E0D0ED0C0AB1EE400A55
:102BF000C0ED010A07E0D0ED0C0A20EE010AF1EE6B
:102C0000600AC0ED010A80ED030A07E090ED0C0AAE
:102C1000B1EE400A80ED010AC0ED030AD0ED010AD1
:102C20009FED1A1A9FED1A2A80EE810A80ED010AA3
:102C3000D0ED021AC1EE810AC0ED020AD0ED0C1AE5
:102C400081EE821AD0ED031A21EE211A80ED031ACB
:102C5000BDE81040FFF7C2BBD0ED0C0A20EE410AE0
:102C6000F1EE600AC0ED010ACDE7C0ED010ACAE746
:102C7000D0ED0C0AF9E7C0ED010AC0ED020ACBE77E
:102C8000D5000020000000009486002000007A4457
:102C90000000FA4370B500202DED028B03F07AF8A6
:102CA0000446012003F076F83C4E05460121B06B46
:102CB0000CF0A8FFB0EE408A0021B06B0CF0A2FF30
:102CC00006F13C01F0EE401A487828B948682044E3
:102CD00048608868401B8860642014FB00F000EEA8
:102CE000100A2F4C6FF06300F8EEC00A94ED041A3E
:102CF00080EE810AD4ED020A20EE202A82EE080A34
:102D000084ED080A15FB00F002EE100A2548B8EE23
:102D1000C22AC2EE012A62EEA00A80EEA11A84ED58
:102D20000B1A01F061FC1F4884ED080A94ED0B0AB0
:102D3000183001F059FC84ED0B0A0AF0BFFB00EEDD
:102D4000100A164A0021B8EEC00A0120283A84ED84
:102D5000140ABDEEC00A10EE103A32F8105002EB21
:102D60004006401CC0B226F8025C1428F5D3D38478
:102D7000002032F91030401CC0B219441428F8D396
:102D8000142091FBF0F000B200EE100AB8EEC00A79
:102D900084ED140ABDEC028B70BD00009486002007
:102DA000048600205801002010B50820FFF7D6FE49
:102DB000FDF736FC9FED0B1B53EC112BFDF73EFB93
:102DC0009FED0A1B53EC112BFDF738FB9FED091B00
:102DD00053EC112BFDF732FBFDF742FC00EE100A1D
:102DE00010BD00006666666666660A400000000068
:102DF00000002640000000000000303FD0F8DC0357
:102E000005F063BED0F8DC0305F075BE006806F07F
:102E100035BB006806F036BBC1EB011100EB810049
:102E2000002200F81A2F4270C27282721046704758
:102E3000C1EB011100EB810090F84C007047C1EB31
:102E4000011100EB8100806B704710B5044690F8CB
:102E5000D403012809D0012084F8D403206806F0A7
:102E60001CFB002084F8D40310BD022010BD2DE906
:102E7000FF4F83B00546DDE9117690F8D403DDF805
:102E8000408093468A4601281CD0CAEB0A100123D1
:102E900005EB800485F8D4334FF0000984F81990CD
:102EA0000698207584F815A084F826700BF07F0032
:102EB000A07551462846FFF7AFFF5FEA0B6005D5C6
:102EC000E37505E0022007B0BDE8F08F84F81790A5
:102ED000286806F0D7FA012F06D1B8F1010F03D107
:102EE00010B9BC2E00D9BC2684F81880B0B2208559
:102EF000CDF80080CDE9017028685A465146069BFE
:102F000006F036FB85F8D493DDE7D0F8DC0305F056
:102F100069BE2DE9F0030E46DDE906C9DDE9087456
:102F2000C1EB061100EB81010225CA7581F826303C
:102F3000BCF1000F0AD081F82A50002463B1012BA4
:102F400031D0022B28D0032B16D125E04FF00308F7
:102F500081F82A804C76F0E7BCF1010F0CD11AB150
:102F60008A7E012A19D007E0D7B9012281F83D20D5
:102F700000E0C2B181F82A50C1F82C904F6381F86B
:102F80004C408C634E7581F84D4082790068BDE8F5
:102F9000F003143106F07CBB12B191F83C20E8E755
:102FA00091F83D20E5E781F82A40E5E72DE9F04179
:102FB00004460068064606F06CFA012876D12068BF
:102FC00006F020FD002871D0206806F01BFD80026D
:102FD00003D521684FF400104861206806F012FD07
:102FE000C00203D521684FF480104861206806F0C4
:102FF00009FD400103D521684FF0806048612068D9
:1030000006F000FD800702D5216802204861206893
:1030100006F0F8FC800018D521684FF00050486198
:10302000D6F84004C00710D11021304606F0E6F96A
:10303000304606F0C7F9607A022803D101212068E2
:1030400006F0BCFC2046FFF7DDFE206806F0DAFC47
:10305000C00102D5204600F01FFC206806F0D2FC1B
:10306000000705D5204600F0BAF82168082048611D
:10307000206806F0C7FC800123D5206806F004FB19
:10308000074600254FF0010814E005F00F0108FA8B
:1030900001F038420DD006EB4510D0F80005E9B23A
:1030A0000004204603D500F0C6F802E01CE000F062
:1030B00080FA6D1C6079A842E7D821684FF0007053
:1030C0004861206806F09EFCC043C0060CD420680E
:1030D000816921F010018161204600F027FC206801
:1030E000816941F010018161BDE8F081F8B504000B
:1030F00005D094F8D5032568002610B106E001201C
:10310000F8BD84F8D463204600F028F8032084F842
:10311000D503B5F1A04F00D1A671206806F01EF9C5
:10312000207C8DF8000094E80F0006F0B7F8022527
:1031300060B90121206806F0A1FC38B9207C8DF827
:10314000000094E80F0006F0D1FB10B184F8D553CD
:10315000D5E7012084F8D5030020F8BD3EB5012154
:10316000084602F005FD0121802002F00DFD4FF41C
:10317000C050009002208DF8040003208DF8050057
:10318000104D00248DF8074069462846FFF782FB62
:103190000A220B212846FFF737FC0A220C21284679
:1031A000FFF732FC43208DF8080005208DF8090058
:1031B0008DF80A4001208DF80B0002A801F0DCFC1C
:1031C0003EBD000000000240D0F8DC0305F027BD42
:1031D000D0F8DC0305F027BD006806F036BCD0F857
:1031E000DC0305F0C8BC10B5044690F8D4030128F0
:1031F0000DD0012084F8D4030121206806F0C6F820
:10320000206806F0D9F8002084F8D40310BD02200D
:1032100010BD10B5044690F8D403012809D0012050
:1032200084F8D403206806F057FC002084F8D40307
:1032300010BD022010BD2DE9F05F054600680E4666
:10324000074606F0D7FBC6EB061140074FF007080C
:103250004FF0040905EB810401D5484633E03146BF
:10326000286806F0C7FBC0054FF0080A08D507EB31
:1032700046114FF48070C1F8080584F84DA028E08D
:103280003146286806F0B6FB000705D507EB461166
:10329000C1F808A506200CE03146286806F0AAFB14
:1032A000400509D507EB46114FF48060C1F80805C9
:1032B000092084F84D000CE03146286806F09AFB9E
:1032C00000060AD5802007EB4611C1F8080584F8EE
:1032D0004D803146286806F0E0F83146286806F04F
:1032E00089FB80052868314604D506F0D6F84FF4EE
:1032F000007059E106F07EFBC0074FF0200B4FF045
:10330000010A4FF000084ED007EB4617C7F808B582
:10331000E07E012807D184F81B80D7F8040520F44B
:103320008030C7F80405A87930B1206BD7F81015A4
:10333000C1F31201401AA06384F84DA0C4F8448080
:103340005246C7F808A594F8260030B1022804D0E8
:1033500003280AD0012808D013E03146286806F077
:103360009CF81020C7F808050BE0D7F8000540F0DE
:103370000050C7F8000584F84C2031462846FFF776
:10338000C4FDA879012807D1208DA16B0144491EF5
:10339000B1FBF0F0C00704D014F83C0F80F001003E
:1033A0002070BDE8F09F3146286806F023FB8006B8
:1033B0000CD507EB4611C1F808B5A07E0128F0D165
:1033C00084F81BA0032084F84D00B4E0314628683F
:1033D00006F010FB80074FF0050B75D507EB461084
:1033E0000222C0F8082594F84D10012916D00629AC
:1033F00019D007291CD009291AD0052933D003294F
:1034000063D004297DD008297ED00229C9D094F840
:103410004C2031462846FFF778FDC2E784F84D205E
:1034200084F84CA0F3E784F84D2084F84CB0EEE724
:1034300084F84D20616C491C6164022910D9C4F8DC
:103440004480A27E4146012A07D1E1762177D0F857
:10345000041521F48031C0F8041584F84C90D6E7A7
:1034600084F84C2022E084F84D20E17E0129CED161
:1034700094F826100329F3D1A16C491CA1640229F8
:1034800011D9C4F8488084F81B80616C032901D2EB
:1034900084F81CA0D0F8041521F48031C0F804157C
:1034A00084F84C9002E084F84C20B0E794F82610A1
:1034B00009B10229ABD1D0F8001521F0804141F0CB
:1034C0000041C0F80015A2E724E084F84D20E17E19
:1034D00001299CD184F84C20D0F8041541F48031A6
:1034E000C0F80415D0F80C1541F04001C0F80C15D7
:1034F000D0F80C1521F02001C0F80C15D6E700E03B
:1035000002E084F84D20ABE784F84D20606C401C4D
:103510006064A2E73146286806F06CFA400610D5D0
:1035200007EB46114020C1F8080584F84DB0A07E95
:1035300008B9C4F8448031462868BDE8F05F05F05A
:10354000ACBF3146286806F055FAC0067FF565AF76
:1035500094F82600032803D028B1022803D00FE0F6
:10356000C4F8448006E0C4F84480A87910B1E07E35
:10357000012818D184F84D903146286805F08DFF58
:10358000E07E01280FD107EB461084F81B80D0F8AD
:10359000041521F48031C0F80415D0F80C1541F061
:1035A0002001C0F80C15102007EB4611C1F80805E2
:1035B000F7E62DE9F05F054600680F46064606F07F
:1035C00019FAC7EB071140074FF0040A05EB810415
:1035D00005D506EB4711C1F808A5072089E0394653
:1035E000286806F007FA80064FF000084FF001093E
:1035F0004FF0020B28D506EB47112020C1F8080533
:10360000607E0326012809D184F8198084F84CB023
:1036100084F84D603946286805F03FFFA07E0128F8
:1036200010D1E07E00280DD194F82600012801D0A9
:1036300084F81B9084F84D603946286805F02DFF0A
:10364000C4F84480BDE8F09F3946286806F0D2F9F6
:10365000800506D506EB47114FF40070C1F8080548
:1036600049E03946286806F0C5F9C00720D0C4F8FB
:1036700044803946286806F0BDF9400606D506EBB9
:10368000471184F819904020C1F80805E07E48B140
:1036900006EB471084F81B80D0F8041521F4803124
:1036A000C0F8041506EB47114846C1F8089520E01C
:1036B0003946286806F09EF940060ED5052084F8A4
:1036C0004D00A07E08B984F81990C4F844803946AA
:1036D000286805F0E2FE402028E03946286806F018
:1036E00089F900070DD506EB47110820C1F8080538
:1036F000062084F84D0039462868BDE8F05F05F0E3
:10370000CCBE3946286806F075F9C00613D5C4F852
:10371000448084F84DA0607E18B9207E08B984F8F2
:1037200019903946286805F0B8FE102006EB4711BD
:10373000C1F8080586E73946286806F05BF90006F7
:103740001CD5A87970B1606C401C6064022811D946
:10375000C4F84480524684F84CA039462846FFF706
:10376000D4FB09E0072084F84D003946286805F0AD
:1037700094FE01E084F84CB08020D7E739462868F1
:1037800006F038F9400509D5092084F84D0039467E
:10379000286805F082FE4FF48060C7E73946286844
:1037A00006F028F98007C5D506EB47115A46C1F83F
:1037B00008B594F84D00012817D003283AD0042802
:1037C00040D005284ED006284FD0072801D0092820
:1037D000B0D184F84D20606C401C606402284AD946
:1037E000C4F8448084F84CA04FE084F84D2084F85D
:1037F0004C9094F82600022801D0032845D1A879DE
:1038000028B994F83D0080F0010084F83D00A879C3
:1038100001283AD1606B20B3218D0844401EB0FBD3
:10382000F1F0C00731D094F83D0080F0010084F839
:103830003D002AE084F84D20E07E012825D184F85F
:103840004C2022E084F84D2084F84C20E07E0128B2
:103850001BD184F81B80D1F8040520F48030C1F816
:10386000040512E084F84D20E9E784F84D20052096
:1038700084F84C0009E084F84C20D1F8000520F0D1
:10388000804040F00040C1F8000594F84C203946D3
:103890002846FFF73AFBD5E67CB504680546D4F820
:1038A00040040190D4F8400420F02E0000900198CC
:1038B000800709D50198C00702D02846FFF79EFA75
:1038C000009840F0020000900198000724D500986D
:1038D00040F008000090019840071AD5687A022845
:1038E00003D0E87901280CD00FE00198C0F34140E3
:1038F0000228286803D0012106F060F805E00221C3
:10390000FAE74EF66020C4F804042846FFF760FC8E
:1039100002E02846FFF758FC01988006009802D57F
:1039200040F020000090C4F840047CBD2DE9F04137
:10393000024600680746016AC1F3434301F00F06DF
:10394000C1F30A15022B2ED1002D2CD0C6EB061187
:1039500002EB8104E16A002925D0A26B636B2A4443
:103960009A4222D82A4606F051F8E06A2844E062DA
:10397000A06B2844A06307EB4610D0F81015228DE9
:10398000C1F3C941AA420ED100290CD0D0F80015CC
:1039900021F0804141F00041C0F8001514F83C0FBF
:1039A00080F001002070BDE8F081042084F84C0014
:1039B000F9E7FEE770B50D4C0025C4F8A4520C4899
:1039C000016821F440310160016841F480310160F7
:1039D000C4F8A052012004F5287409F0C1FC0120AC
:1039E000606009F0BDFC656070BD00000080404271
:1039F000000402402DE9FC410121022002F0B8F848
:103A00000121022002F0B4F801248DF804400025C1
:103A10004FF400708DF8065003260F4F00908DF87C
:103A200005608DF8074069463846FEF733FF8DF88C
:103A3000044020028DF8065000908DF805608DF846
:103A4000074069463846FEF725FF0448C0F8A442FF
:103A5000C0F8A042BDE8FC81000402400080404262
:103A600070B50D4C0026C4F8A4620C48016821F41E
:103A700040310160016841F4803101600125C4F8E2
:103A8000A052284604F5287409F06AFC65600120FC
:103A900009F066FC666070BD008040420004024090
:103AA0002DE9F047814618480025016821F440318E
:103AB000016001680160154E2C462F464FF0010849
:103AC000C6F8A472012009F04BFCC6F8A48268066F
:103AD000D6F82012000E11B140F0010501E020F0EF
:103AE0000105012009F03CFC641CE4B2082CE7D37A
:103AF000B9F1000F04D0FFF7B3FF2846BDE8F08707
:103B0000FFF758FFF9E70000000402400080404240
:103B100070B50D46044600F01BF8204600F0B0F8E2
:103B200000F05EF8284600F0ABF800F059F800F01D
:103B30000FF844F0010000F0A3F800F051F8012064
:103B4000FFF7AEFF044600F02BF8204670BD0000E2
:103B500070B51148016821F440310160016841F4F9
:103B6000803101600D4C0120C4F8A002D4F820126D
:103B700000290FD0C4F8A40209F0F2FB0025C4F814
:103B8000A052D4F82002002804D1012009F0E8FB5B
:103B9000C4F8A45270BD00000004024000804042FE
:103BA0000D4810B5016821F440310160016841F40D
:103BB00080310160094C0020C4F8A402C4F8A002BE
:103BC000012004F5287409F0CBFB0120606020601F
:103BD000BDE8104009F0C4BB000402400080404230
:103BE00070B512480024016821F440310160016879
:103BF00001600F4D0126C5F8A062304609F0B0FB08
:103C0000C5F8A46207E0641CE4B2322C03D9FFF7C4
:103C1000C7FF002070BD012009F0A2FBD5F82002EB
:103C20000028F0D1C5F8A402012070BD00040240B4
:103C3000008040422DE9F0411D4614460F46804663
:103C4000069EFFF765FF621CFF21C4F1080301FA1D
:103C500002F22B445B1ED9400A43C5F108018E4095
:103C6000D2B2F1B2C4F10703D940104040EA0102D8
:103C70003946404600F034F80120BDE8F0810000EC
:103C80002DE9F04105461448016821F440310160F6
:103C9000016841F480310160104E0027C6F8A4721B
:103CA0003C464FF00108E809C6F8A0026806050E78
:103CB000012009F055FBC6F8A482012009F050FB51
:103CC000C6F8A472012009F04BFB641CE4B2082C76
:103CD000E9D3BDE8F08100000004024000804042CA
:103CE00070B515460E460446FFF732FF2046FFF733
:103CF000C7FFFFF775FF3046FFF7C2FFFFF770FF02
:103D00002846FFF7BDFFFFF76BFFFFF749FF0120D4
:103D100070BD00000F4820B5811C021D09F03EFC5B
:103D20000D484068B0F57A7F12DB0A491E39CA8B0C
:103D30008A810B8CCB81488C08820D88521BCA83E8
:103D40004A889A1A0A848A88801A00F58040488432
:103D5000204620BDA2870020C47D00200E4820B54B
:103D6000811C021D09F08AFC0C484068B0F57A7F7E
:103D700010DB094918390A8B4A824B8B8B82888B5E
:103D8000C882CD88521B0A830A899A1A4A834A89B3
:103D9000801A8883204620BD9C870020C47D002097
:103DA0000021D020FFF7B4BE08B509F057FB0F4F34
:103DB0000D4C4FF47A7507F1180807F11E060090B4
:103DC0000A2168460BF056FC6068A84207DA4146B3
:103DD000B81D00F00DF83146044800F009F8FFF76F
:103DE00099FFFFF7BBFFEBE7C47D0020848700202D
:103DF0000A8802804A88428089888180704730EE34
:103E0000C00AB0EE002A80ED000AD0ED010A90ED64
:103E1000041AC16870EE601AB8EEC11A21EE811A58
:103E2000D0ED051AF8EEE11A01EE801AF0EE401A14
:103E300040EEC21A90ED022A31EE822AD0ED061A27
:103E4000F8EEE11A01EE821ABDEEC11A11EE102A47
:103E5000B2F5FA6F02DD01F5FA6106E012F5FA6FCC
:103E600002DAA1F5FA6100E0114444F2A012C16047
:103E7000914202DC5242914200DAC260C0ED020A75
:103E800080ED010AC0687047F0B5DFED711A714D21
:103E90000121B0EE611A95F858209FED6F3A9FED21
:103EA0006F2ADFED6F3ADFED6F2A022A06D0032A70
:103EB00004D0042A0DD0052A0BD01FE0F5EEC00A6D
:103EC000F1EE10FA11D310EE102A674B9A420CD87B
:103ED00010E0F5EEC00A4FF0FF31F1EE10FA04DC0D
:103EE00010EE102A614B9A4204DAF0EE431AB0EE5B
:103EF000421A03E0F0EE631AB0EE621A5C4E5D4BBC
:103F0000002496F82C206AB1DFED5B1A9FED5B1A56
:103F10001A89521C92B21A81C82A04D91C8186F8C7
:103F20002C4000E01C8130EEC02A554F80ED002A65
:103F3000D0ED012A32EE623A02EE901AF8EEE22A51
:103F400061EEA21A63EE212A01EE901AF8EEE11A50
:103F500021EE211A41EE022A90ED031AB8EEC11AA1
:103F600032EE811ABDEEC11A11EE101AC160BA68A4
:103F7000914201DC0A4600E0C260F9688A4200DA38
:103F8000C16080ED012AD0ED031A96ED0A1AB8EE51
:103F9000E12AB4EE421AF1EE10FA01D17178C9B1FA
:103FA0005C81B8EEE10AB4EEC01AF1EE10FA2BDD36
:103FB00096ED090A71EE400AC6ED0A0A90ED030A71
:103FC000B8EEC01AF4EEC10AF1EE10FA36D8B8EE27
:103FD000C00A31E05989491C89B259816429E0D36A
:103FE00023485C81E0300121017080ED010A97EDEA
:103FF000000AB8EEC00A30EEC00A80ED020AB5F839
:10400000541081810020F0BDB8EEE10AB4EEC01A70
:10401000F1EE10FA19D296ED090A31EE000A86ED9A
:104020000A0AD0ED030AB8EEE01AB4EEC10AF1EEC6
:1040300010FA03DBB8EEE00A86ED0A0A96ED0A0AEA
:10404000BDEEC00A10EE100AF0BDB8EEE10AF3E7CB
:104050000000000004860020C3642A3B2497FF3B35
:104060006F12033BA69BC43B000048C300004843BB
:1040700094860020280100206F12833AA69B443BBF
:10408000D07E002070B52DED0A8BF0EE608AB0EE88
:10409000408A09F0F1F9404200EE100AF1EE040AFC
:1040A000F04DB8EEC00AF04C80EE201ABDEEC10A09
:1040B00085ED000A94F8580006287CD09FEDEB9A15
:1040C000B6EE00BAA8B1012813D0092811D00228F1
:1040D00072D00328FCD004286FD00528FCD0072814
:1040E00069D1F5EEC08AF1EE10FA67DD4FF4E160B8
:1040F000B5E194ED000A20EE0B0A10EE100AFCF771
:104100009CFA41EC1C0BB3EE0E0A08F081FF10EE96
:10411000100AFCF792FA41EC100B07F0EDFCD4ED1D
:10412000019AB0EE40AAF0EE60AA19EE900AFCF7F0
:1041300084FA53EC1A2BFCF7F3F953EC1C2BFCF725
:10414000D6F8FCF78DFA00EE100A94ED001AF1EEA5
:10415000400A41EE4B0A89EEA00A10EE100AFCF765
:104160006CFA41EC100B06F02BFC51EC100BFCF739
:1041700077FA01EE900AB3EE0E0A08F049FFB0EEAE
:10418000401AF0EE610AB0EE680A0BF089F8B5EE5D
:10419000C00AF0EE408AF1EE10FA29D094ED000A40
:1041A00020EE0B0A10EE100AFCF747FA41EC1A0B4E
:1041B00018EE900A03E088E08AE0EAE045E1FCF7C7
:1041C0003CFA41EC100B07F097FCB0EE409AF0EE91
:1041D000609A6068FCF731FA53EC192BFCF7A0F9F0
:1041E00053EC1A2BFCF783F8FCF73AFA09EE100AA5
:1041F000F5EEC08AF1EE10FA16D094ED000AF0EE5A
:10420000490A40EE4B0A60EE880A80EE891AF0EE09
:10421000490A40EE0B0A20EE880AC0EE090A84ED36
:10422000071AC4ED0A0A03E084ED078A84ED0A8ABE
:1042300018EE900AFCF701FA41EC100B9FED8C1B75
:1042400006F08EFD9FED8C1B51EC100B53EC112BE7
:10425000FCF7F4F841EC1A0B18EE900AFCF7EDF9B4
:1042600041EC100B9FED861B06F07AFD9FED861B3F
:1042700051EC100B53EC112BFCF7E0F841EC190B4F
:10428000DFED830A9FED830A08EEA00A10EE100A04
:10429000FCF7D3F953EC192BFCF729F853EC1A2B44
:1042A000FCF725F8FCF7DCF900EE100A84ED130AA0
:1042B000D5E90010084400EE900AF8EEE00A30EE6E
:1042C000800ABDEEC00A84ED150ABDEC0A8B70BDF4
:1042D000B3EE090A08F09CFE10EE100AFCF7ADF9E7
:1042E00041EC100B07F008FCD4ED019AB0EE40AAA7
:1042F000F0EE60AA19EE900AFCF79FF953EC1A2B26
:10430000FCF70EF99FED64AB53EC1A2BFBF7EFFFB4
:10431000FCF7A6F900EE100AB1EE400ADFED600AE4
:104320005FE018EE900AFCF788F941EC100B07F0FB
:10433000E3FBB0EE409AF0EE609A6068FCF77DF91E
:1043400053EC192BFCF7ECF853EC1A2BFBF7CFFFCF
:10435000FCF786F909EE100A71E094ED000AF0EE20
:10436000490A40EE4B0A60EE880A80EE891AF0EEA8
:10437000490A40EE0B0A20EE880AC0EE090A84EDD5
:10438000071AC4ED0A0AA0E784ED078A84ED0A8AB9
:104390009BE7B3EE090A08F03BFE10EE100AFCF7AB
:1043A0004CF941EC100B07F0A7FBD4ED019AB0EEED
:1043B00040AAF0EE60AA19EE900AFCF73EF953EC21
:1043C0001A2BFCF7ADF89FED37AB53EC1A2BFBF72C
:1043D0008EFFFCF745F900EE100ADFED340AB1EE6E
:1043E000400A70EE600A89EEA00A10EE100AFCF78F
:1043F00024F941EC100B06F0E3FA51EC100BFCF73A
:104400002FF901EE900AB3EE090A08F001FEB0EEB2
:10441000401AF0EE610AB0EE680A0AF041FFF0EED1
:10442000408A02F001FA00EE100AF5EEC08AB8EEFA
:10443000C00AF1EE10FA84ED130A7FF472AFF5EEC4
:10444000C08AF1EE10FA9FD087E7F5EEC08AF1EE50
:1044500010FA02D240F24C4001E040F2DC506065BC
:1044600033E70000D07E002004860020000000001A
:104470000000000000000840000000C0CC8C52C0CA
:1044800000000000000000400000000000A078C014
:1044900000C053443333FB40000000202FDDC43FF5
:1044A00079E9263E000000205839CC3FC1CA613E60
:1044B0001CB50121042001F05BFB202000900020AE
:1044C0008DF8040003208DF8050001208DF8070009
:1044D00069460248FEF7DEF91CBD000000080240F4
:1044E00000EE100AB7EE001A70B5F8EE400A39482F
:1044F000394D002281EE200ADFED350A437820EEA7
:10450000200A4BB1027042808280C2800281D5F8BD
:104510001432012B00D14270D5F81432012463B952
:10452000437853B90470C3885B1C9BB2C3808B4231
:1045300003D9C28083885B1C8380DFED280A8688CC
:1045400080EE801AFCEEC10A10EE903A9BB2B342A4
:1045500002D24470032070BD0378B3B3D5F814328F
:10456000012B09D103895B1C9BB203818B4203D9C8
:1045700002814188491C4180DFED190A80EE801AD2
:10458000FCEEC10A10EE901ADFED160A8AB24188DD
:104590008A420ED280EE801ABCEEC11A11EE102AA9
:1045A00092B28A4205D9D5F8141271B9447002202A
:1045B00070BD80EE801ABCEEC10A10EE102A92B2D5
:1045C0008A4203D24470012070BDFFE70020FBE760
:1045D00000007A44BC000020000041420000FA4381
:1045E0000000484200009643D0ED000A90ED041A06
:1045F00070EE810AC0ED010A90ED051A70EE811A85
:1046000080EEA11A80ED031AD0ED021A30EE612A75
:10461000B0EE610AF7EE001A01EE020A31EEC11A9D
:1046200061EE200A80ED020AC0ED000A704700002A
:1046300000221249012370B101280FD002280FD0A7
:10464000032811D0042811D0052813D006280AD138
:104650000A704A7006E00A704B7009E00A7000E0C8
:104660000B704B708A7070470B70F2E70B7002E0B2
:104670008B7070470A704A70FAE70000C80000208B
:1046800030B41949194A0C78137851789278022C71
:104690000DD0012C09D1164C01281DD00120C4F8E1
:1046A000B802C4F8B402C4F8BC0230BC7047012898
:1046B00003D000221146104605E03BB1002039B17D
:1046C00000213AB1002230BC00F014B8FF20F6E718
:1046D000FF21F6E7FF22F6E7C4F8B832C4F8B412B7
:1046E000C4F8BC22E1E70000C47D0020C80000201F
:1046F0000080414270B514460D460AF035F9074B6B
:10470000186028460AF030F90549886320460AF007
:104710002BF90249091F086070BD000038180040DD
:104720000040014070B53C21D020FFF7F1F904466C
:104730003B21D020FFF7ECF904EB0020184C3E2180
:10474000E083D020FFF7E4F905463D21D020FFF7B4
:10475000DFF905EB002020844021D020FFF7D8F9B5
:1047600005463F21D020FFF7D3F905EB00200D4986
:1047700000B260844968B1F57A7F0FDBE18BA181DB
:10478000228CE28120822388C91AE1836188511A30
:104790002184A188401A00F58040608470BD00002B
:1047A00084870020C47D002070B54421D020FFF70D
:1047B000AFF904464321D020FFF7AAF904EB00200B
:1047C000174C46212083D020FFF7A2F9054645214A
:1047D000D020FFF79DF905EB002060834821D02011
:1047E000FFF796F905464721D020FFF791F905EB31
:1047F00000200C4900B2A0834968B1F57A7F0DDB37
:10480000218B6182628BA282E082E388C91A2183B4
:104810002189511A61836189401AA08370BD00000B
:1048200084870020C47D0020BC2801D3012210E031
:10483000622801D302220CE02A2801D3032208E0D7
:10484000142801D3042204E00A2801D3052200E041
:1048500006221A21D020FFF743BA10B504464FF4C0
:104860007A70844201D9044602E0042C00D2042468
:10487000B0FBF4F0401EC2B21921D020FFF730FA8D
:104880006008BDE81040FFF7CFBF7521D020FFF7CB
:104890003FB910B580226B21D020FFF721FAC82044
:1048A00008F042FD00226B21D020FFF719FA012009
:1048B00000F03AF8002000F02EF83220FFF7CDFF8C
:1048C00000223821D020FFF70BFA00226A21D020E5
:1048D000FFF706FA00222321D020FFF701FA8022F9
:1048E0003721D020FFF7FCF97521D020FFF710F910
:1048F000682801D0012010BD01226B21D020FFF7D4
:10490000EFF900226C21D020FFF7EAF93220FFF7FF
:10491000A4FF002010BD08B50223009004221C2132
:10492000D020FFF787F908BD08B5022300900422C4
:104930001B21D020FFF77EF908BD000008B508F064
:104940008DFD0F4F0D4C4FF47A7507F1180807F1E4
:104950001E0600900A2168460AF08CFE6068A84294
:1049600007DA4146B81DFFF743FA31460448FFF71E
:104970003FFAFFF7D7FEFFF717FFEBE7C47D0020F4
:1049800084870020124910B510480860012211499F
:10499000114804F035F808B1FDF79CFE0F490E48A8
:1049A00004F01BFC08B1FDF795FE0D490A4804F020
:1049B00014FC08B1FDF78EFE074804F055FC0028F2
:1049C00003D0BDE81040FDF785BE10BDE400002017
:1049D000E00000207D920008CC8D0020F401002032
:1049E00014020020FEE7000070B50121022001F052
:1049F000BFF80121022001F0BBF80121042001F0E1
:104A0000B7F80121102001F0B3F80121082001F0CE
:104A1000AFF80121082001F0ABF80121042001F0DA
:104A2000A7F80121084601F0A3F81E4D4FF40051EC
:104A30002846FDF76BFFAC1421462846FDF766FFBC
:104A4000194D01212846FDF761FFE1001748FDF7E8
:104A50005DFF174EA1103046FDF758FF2146304646
:104A6000FDF754FF21462846FDF750FF211111485C
:104A7000FDF74CFF10490020C1F8B402C1F8B002A4
:104A80000E4AC2F880020E49C1F8BC020D49C1F8B5
:104A9000A802C1F8B002C2F8B0020B49C1F8A002E6
:104AA00070BD0000000402400008024000100240F7
:104AB000000C0240000002400080404200004142E1
:104AC0000000424200804142000040422DE9FE4386
:104AD0000C460546FFF788FF0121022001F06CF823
:104AE0000121042001F044F80121022001F064F8C2
:104AF0000121042001F03CF80121022001F05CF8C2
:104B00000121042001F034F80121022001F054F8C1
:104B10000121042001F02CF8144FDFF85480CDE976
:104B20000054002604233A46D9014046029602F07A
:104B3000E3FBCDE9005403233A46B91540460296FB
:104B400002F0DAFBCDE9005402233A4680214046C8
:104B5000029602F0D1FBCDE9005401233A464021F0
:104B60004046029602F0C8FBBDE8FE830004014007
:104B7000000802407047000030B50F23C27801786A
:104B80000125FAB1144A126801F1E02102F4E06251
:104B9000C2F5E062C2F30722C2F10404D3404278B6
:104BA000A24084781C401443220181F8002400783C
:104BB00000F01F018D404009800000F1E020C0F8A6
:104BC000005130BD01F01F0085404809800000F110
:104BD000E020C0F8805130BD0CED00E002490843F0
:104BE00002490860704700000000FA050CED00E083
:104BF00030B40021084B0A46002003EBC004401CDF
:104C0000C0B262548028F8D3491CC9B20829F3D332
:104C100030BC00F011B90000E480002010B5002184
:104C2000074B0A46002003EBC004401CC0B262548C
:104C30008028F8D3491CC9B20829F3D310BD00005D
:104C4000E48000202DE9F0471F4690460E4682463C
:104C50000025DDF8209011E03146504600F034F98F
:104C6000544607E019F8050001216D1C00F0ECFB2B
:104C7000641CE4B24445F5D3761CF6B2BE42EBD3D5
:104C8000BDE8F08710B57F2816D83F2914D8072330
:104C9000A3EBD10301F00701C1F107040121A140F9
:104CA000064CDBB204EBC000002AC25CC9B201D0E2
:104CB0000A4300E08A43C25410BD0000E480002093
:104CC0007CB50121082000F053FF01258DF8045028
:104CD000002480208DF80640514E00908DF805404C
:104CE0008DF8074069463046FDF7D4FD8DF8045035
:104CF00040208DF8064000908DF805408DF8074063
:104D000069463046FDF7C6FD8DF8045020208DF829
:104D1000064000908DF805408DF807406946304602
:104D2000FDF7B8FD8DF8045010208DF80640009076
:104D30008DF805408DF8074069463046FDF7AAFD1D
:104D4000384EC6F89442642006F5257608F0ECFA51
:104D500035600021AE2000F077FB0021D52000F067
:104D600073FB0021502000F06FFB0021A82000F011
:104D70006BFB00213F2000F067FB0021D32000F0F7
:104D800063FB0021084600F05FFB0021402000F09B
:104D90005BFB00218D2000F057FB0021142000F068
:104DA00053FB0021202000F04FFB0021022000F0E7
:104DB0004BFB0021A12000F047FB0021C02000F0A8
:104DC00043FB0021DA2000F03FFB0021122000F01D
:104DD0003BFB0021812000F037FB0021EF2000F099
:104DE00033FB0021D92000F02FFB0021F12000F03F
:104DF0002BFB0021DB2000F027FB0021302000F0FE
:104E000023FB0021A42000F01FFB0021A62000F0BE
:104E10001BFB0021AF2000F017FBFFF7E9FE7CBD74
:104E2000000C0240008041420121017041700021CC
:104E300081700321C170704770B5104E002505F1D7
:104E4000B000C0B2002100F0FFFA0021084600F0D7
:104E5000FBFA0021102000F0F7FA002406EBC40052
:104E60000121405D00F0F0FA641CE4B2802CF5D31F
:104E70006D1CEDB2082DE2D370BD0000E48000206F
:104E800070B5104E002505F1B000C0B2002100F051
:104E9000DBFA0021084600F0D7FA0021102000F0CC
:104EA000D3FA002406EBC4000121405D00F0CCFAE7
:104EB000641CE4B2802CF5D36D1CEDB2022DE2D35C
:104EC00070BD0000E480002010B50446B031C8B2C7
:104ED000002100F0B9FA102040EA1410002100F07F
:104EE000B3FA04F00F00BDE81040002100F0ACBAA6
:104EF0002DE9F05F203A98460D468346894602F038
:104F0000FF0A00262EE0B8F10C0F08D0174901EB7C
:104F10000A100027845D200607D50A9A08E0144984
:104F20000AEB4A0001EB8000F3E70A9890B10022F7
:104F300029465846FFF7A6FE6D1C6006EDB2040E2A
:104F4000A5EB0901414507D10BF101004D4600F0E9
:104F5000FF0B05E00122EBE77F1CFFB2082FDAD33D
:104F6000761CF6B24645CED3BDE8F09F440D01084D
:104F7000D008010801490020087070479201002004
:104F80002DE9FF4F81B00027DDF838B01D4692466D
:104F900080463C464FF001094FEA5B062BE0281B98
:104FA000401E0A22C0B2012100E05143401EC0B29F
:104FB000FBD2BAFBF1F00A21B0FBF1F201FB1200C7
:104FC00027B9691E8C4201DA48B101273030C2B2DC
:104FD00006FB0480C0B25B46CDF8009006E006FBFD
:104FE0000480C0B25B462022CDF800900299FFF702
:104FF0007FFF641CE4B2AC42D1D305B0BDE8F08FB2
:10500000F8B516460D460446012714E07A2C02D95D
:1050100000241035EDB23A2D03D900242546FFF7C0
:10502000E7FD009732780C2329462046FFF760FF02
:105030000834E4B2761C30780028E7D1F8BD0000CF
:10504000F8B5AF4D28786978884206D0FFF7D0FDD3
:10505000FFF7F2FE28786870F8BDAA4EAA4F0C241C
:105060006870012806D002287DD003287CD0002853
:105070007BD039E140F299150A210C20FDF788FD1B
:10508000B0FBF5F5B07900B3A0A200210846FFF708
:10509000B7FFA0480078D0B19FA200212620FFF7DB
:1050A000AFFF9EA200213C20FFF7AAFF9C4DB5F95F
:1050B0001C00002813DA9BA200215020FFF7A0FF5C
:1050C0000094B5F91C00424211E097A2DDE70223EB
:1050D0002A46002128200094FFF752FFE1E794A21E
:1050E00000215020FFF78CFF0094B5F91C20052308
:1050F00000215A20FFF744FF8E4C2078C10701D0D1
:105100008DA212E0810701D58DA20EE0410701D5E5
:105110008DA20AE0010701D58DA206E0C10601D5E6
:105120008DA202E0800604D58DA232210020FFF777
:1051300067FF6078E8B18CA232212D20FFF760FF75
:10514000022397ED170A1A4632214B2008F0E0FDA2
:105150007AA232214B20FFF753FF84A2322178201C
:10516000FFF74EFF02E006E03DE06DE008F090FC46
:10517000BAE07FA2E0E77FA200210720FFF740FF0F
:105180000094327801230A210920FFF7F9FE0094E8
:10519000727801230A212720FFF7F2FE0094F278AB
:1051A00001230A214520FFF7EBFE0094B27801238A
:1051B0000A216320FFF7E4FE72A21E210020FFF700
:1051C0001FFF72A21E214B20FFF71AFFD6ED030A24
:1051D0009FED6F1A02231E2180EE810A1A460846AF
:1051E00008F096FD80E000216AA20846FFF708FF5C
:1051F0006BA200214220FFF703FF6AA20F210020CB
:10520000FFF7FEFE009497F8582002230F2142205A
:10521000FFF7B6FE66A21E210020FFF7F1FE664CE6
:10522000207808F0F7F802461E214220FFF7E8FE3A
:1052300062A22D210020FFF7E3FE607808F000F95C
:1052400002462D2142204DE05E4C6078012804D0BA
:10525000012698B1022815D046E05B48009007234C
:10526000602201212020FFF7EDFC58A232210C2002
:10527000FFF7C6FEBDE8F840FFF702BEFFF7CEFC21
:105280002E7031E01E49891F8888401C80B28880BA
:105290001E2802D3002088802E70FFF7BFFC00215B
:1052A0004DA20846FFF7ACFE4FA20F210020FFF7EA
:1052B000A7FEA07802281BD0032819D0042819D0F3
:1052C000052819D04BA21E210020FFF799FE4DA200
:1052D0002D210020FFF794FE207801280ED04CA24B
:1052E0002D215A20FFF78CFEBDE8F840FFF7A4BD42
:1052F00048A2E8E74BA2E6E74EA2E4E751A2EFE7B7
:1053000092010020208000200486002052434D207E
:105310003A000000D086002020580000475A0000C4
:10532000848700202D000000545950453A000000A9
:105330002B00000094860020524F532020000000D4
:105340005053322020000000415050202000000027
:10535000522D43202000000043414E202000000039
:1053600055534152540000004F464600560000007D
:10537000204F4E004C4120204C4220205242202001
:10538000524100006375723A0000000041000000C5
:1053900000007A444361724D6F64653A000000007A
:1053A000414B4D00436172547970653A0000000032
:1053B00048575F5665723A00C47D002053575F56C8
:1053C00065723A00DD000020741D0108555342202B
:1053D000496E69742E2E000055534220496E69743F
:1053E000204F4B2E0000000050533220496E666F54
:1053F0003A000000556E4B6E6F776E204465762044
:1054000000000000446174612052656164793A00D3
:105410004E6F2000576972656420555342505332D5
:1054200000000000322E34472055534250533220A2
:105430000000000078626F78203336302020202072
:10544000000000005965730030B500230E4A0124A6
:1054500011B1C2F8904201E0C2F890320021C2F8C6
:105460009C32050602D5C2F8984201E0C2F8983293
:10547000C2F89C424006491C000EC9B20829EED36E
:10548000C2F8904230BD0000008041420148FDF763
:105490008DBD0000EC890020C2680021002A01DDDA
:1054A000521EC260002A01DA521CC260521C032A3A
:1054B00002D20021C1600121084670479FED060A13
:1054C000002380ED000A80ED010A80ED020AC0E9A8
:1054D0000331C0E905237047000000009FED050A75
:1054E000002180ED000A80ED010A80ED020AC16012
:1054F0007047000000000000002900DB0161002A65
:1055000000DB4261002B00DB426170472DE9F8436C
:1055100001250746ADF80050204800264670ADF83A
:1055200000501F4C80464FF6FF792DE0BDF800007B
:10553000384202D0C4F8845201E0C4F884621020DA
:1055400007F00EFFC4F88C52052007F009FFC4F8DD
:105550008C62052007F004FFC4F88C52102007F07D
:10556000FFFED4F8000230B198F80110BDF8002019
:10557000114388F80110102007F0F2FEBDF800106A
:1055800009EA4100ADF80000BDF80000FF28CDD9C0
:10559000BDE8F843102007F0E3BE0000F8840020C7
:1055A0000000424270B50020274C05462554401C9F
:1055B000C0B20928FAD300F0E3F86678412E03D090
:1055C000202E01D0FF2E07D100F02EF909221F490D
:1055D0001D48FAF753FE667000210846225C401C05
:1055E0001144C0B2C9B20928F8D3184A1C3A71B1A3
:1055F0001570206842F8250F60685060207A10729C
:10560000B4F80300C04380B222F8210C70BD1078BA
:10561000401CC0B210700A280BD90B201070D06942
:10562000C2F82500106AC2F8290092F8240082F816
:105630002D00D2F825002060D2F82900606092F891
:105640002D002072D5E70000F8840020140100200E
:105650002DE9FC410121102000F08AFA01211020DF
:1056600000F086FA0121102000F082FA01211020BA
:1056700000F07EFA00258DF8045003208DF8050017
:105680001B4F0124022600948DF8076069463846B6
:10569000FDF700F98DF804408DF806508DF805509F
:1056A00000968DF8074069463846FDF7F3F88DF807
:1056B000044004208DF8065000908DF805508DF8B8
:1056C000074069463846FDF7E5F88DF804400820A4
:1056D0008DF8065000908DF805508DF8074069460A
:1056E0003846FDF7D7F800F09FF8BDE8FC810000D0
:1056F0000010024003490420087004490248086071
:1057000070470000DC00002000010020E0000020C5
:1057100070B5FFF747FF1848184CC1792170017A1E
:10572000C1F1FF0161704179A1708079E0700820BA
:10573000FCF70AFAFF25002608B1257100E0267162
:105740000920FCF701FA08B1657100E066710A4DA5
:105750000A4E00240C35083E05EB04112246B088A1
:10576000FDF7B4F9010002D02046FCF7F7F9641CFC
:10577000E4B20F2CF0D970BDF884002000010020A5
:105780002DE9FC4100268DF800600125ADF804509C
:10579000224CC4F88862224F3878FFF7B7FE787839
:1057A000FFF7B4FE02208DF800001E4F4FF6FF7881
:1057B0002CE0ADF804501DE0C4F88C52052007F031
:1057C000CFFDC4F88C62052007F0CAFDC4F88C52E6
:1057D000D4F8000240B19DF80000BDF80410385C18
:1057E00008439DF800107854BDF8041008EA410001
:1057F000ADF80400BDF80400FF28DDD9102007F043
:10580000AFFD9DF80000401C8DF800009DF80000E1
:105810000928CED3C4F88852BDE8FC81000042427A
:10582000F9000020F884002070B500F075F800F051
:1058300073F800F071F8374C0025C4F88852102036
:1058400004F5227407F08CFD0120FFF75FFE432072
:10585000FFF75CFE0020FFF759FE0120FFF756FE20
:105860000020FFF753FE0020FFF750FE0020FFF757
:105870004DFE0020FFF74AFE0020FFF747FE0126FD
:105880002660102007F06CFD25600120FFF73EFE2A
:105890004420FFF73BFE0020FFF738FE0120FFF712
:1058A00035FE0320FFF732FE0020FFF72FFE002019
:1058B000FFF72CFE0020FFF729FE0020FFF726FE51
:1058C0002660102007F04CFD2560102007F048FDF1
:1058D0000120FFF71BFE4320FFF718FE0020FFF713
:1058E00015FE0020FFF712FE5A20FFF70FFE5A2088
:1058F000FFF70CFE5A20FFF709FE5A20FFF706FEBD
:105900005A20FFF703FE2660BDE87040102007F024
:1059100027BD00000000424210B50F4C0020C4F823
:105920008802102004F5227407F01AFD0120FFF709
:10593000EDFD4220FFF7EAFD0020FFF7E7FD002024
:10594000FFF7E4FD0020FFF7E1FD01202060BDE846
:105950001040102007F004BD0000424270B52DED4C
:10596000088B9FED6EAADFED6EAAB0EE6A9A9FEDEE
:105970006DBA6D4C206841787F3900EE101A0178BD
:10598000F8EEC08AC1F17F0100EE101A8178F8EEBE
:10599000C09AC1F17F0100EE101A6449B8EEC08AC6
:1059A000B0EEE80A10EE102A9FED610A8A4201DA91
:1059B000F0EE408AF0EEE90A10EE902A8A4201DA0F
:1059C000F0EE409AF0EEC80A10EE902A8A4201DA10
:1059D000B0EE408A57490978052904D002291DD024
:1059E00003291BD02FE0FDEEE80A10EE901A11BB40
:1059F0000179407909B130B10DE060B100EE100AD3
:105A0000B8EE409A04E0484200EE100AB8EEC09AA0
:105A1000F0EE4A8A17E0B0EE409A14E0B0EEC80A01
:105A200010EE101A444A91420DDAC1680F208847DF
:105A300010B1B0EE4A8A06E02068C1680D208847A0
:105A400008B19FED3E8AC8EE8A0A3D489FED3D2A87
:105A500090ED0C0A001D89EE2A1A60EE800AC0EE55
:105A6000022A9FED392A60EE810A89EE8A1A61EED8
:105A7000001A80EE820A88EE0A1AC1EE820A21EE2E
:105A80000B1A21EE221A80EC030AFCF7A7FC2F4820
:105A9000DFED2F0A2F4DB0F92200304900EE100A39
:105AA000B8EEC00A80EE208A95ED040ADFED2A0ADE
:105AB00030EE480AB0EEC00A10EE100A884227DD28
:105AC00027484068B0F57A7F22DD20688268FAB105
:105AD00010EE100A884201DA002017E010EE100ADA
